:020000040800F2
:100000001004002045010008710D0008690D00086A
:100010006D0D0008B10100088D0E00080000000001
:100020000000000000000000000000009D0D00081E
:10003000B501000800000000730D00089F0D0008C6
:100040005F0100085F0100085F0100085F01000810
:100050005F0100085F0100085F0100085F01000800
:100060005F0100085F0100085F0100085F010008F0
:100070005F0100085F0100085F0100085F010008E0
:100080005F0100085F0100085F0100085F010008D0
:100090005F0100085F0100085F0100085F010008C0
:1000A0005F0100085F0100085F0100085F010008B0
:1000B0005F0100085F0100085F0100085F010008A0
:1000C0005F0100085F0100085F0100085F01000890
:1000D0005F0100085F0100085F0100085F01000880
:1000E0005F0100085F0100085F0100085F01000870
:1000F0005F0100085F0100085F0100085F01000860
:100100005F0100085F0100085F0100085F0100084F
:100110005F0100085F0100085F0100085F0100083F
:100120005F0100085F0100085F0100085F0100082F
:10013000DFF80CD000F02AF800480047850F0008CF
:10014000100400200648804706480047FEE7FEE707
:10015000FEE7FEE7FEE7FEE7FEE7FEE7FEE7FEE777
:10016000350E000831010008D2B201E000F8012B81
:10017000491EFBD270470022F6E710B513460A4627
:1001800004461946FFF7F0FF204610BD064C074D08
:1001900006E0E06840F0010394E807009847103457
:1001A000AC42F6D3FFF7C8FFC00F0008E00F00080D
:1001B00000BFFEE77047000070B5044600F0BEF9CE
:1001C00006462546681C10B104480078054400BF67
:1001D00000F0B4F9801BA842FAD370BD0C000020D7
:1001E0002DE9F847024600239C467BE14FF00108C9
:1001F00008FA03F4D1F8008008EA0400A0427DD197
:10020000DFF8F4A2D1F80480A8EB0A09D0453AD06F
:1002100014DCB8F1030F50D009DCB8F1000F31D075
:10022000B8F1010F1CD0B8F1020F49D120E0B8F1AC
:10023000110F18D0B8F1120F42D11EE0B9F5881F86
:1002400025D006DCB9F5803F20D0B9F5801F37D125
:100250001AE0B9F5001F18D0B9F5041F30D117E026
:10026000D1F80CC02DE0D1F80C8008F1040C28E086
:10027000D1F80C8008F1080C23E0D1F80C8008F1CB
:100280000C0C1EE000BF00BF00BF00BF00BF00BFDE
:10029000D1F80880B8F1000F02D14FF0040C0BE048
:1002A000D1F80880B8F1010F03D14FF0080C1461A8
:1002B00002E04FF0080C546103E04FF0000C00E046
:1002C00000BF00BFFF2801D8904601E002F10408FA
:1002D0004646FF2802D84FEA830803E0A3F1080846
:1002E0004FEA88084746D6F800804FF00F0909FA10
:1002F00007F928EA09080CFA07F900E07AE048EA69
:100300000908C6F80080D1F8048008F08058B8F1D8
:10031000805F6FD100BFDFF8E481D8F8188048F023
:100320000108DFF8D891C9F81880C846D8F81880B5
:1003300008F00108CDF8008000BF00BF4FEAB938CF
:100340004FEA930958F829504FEA83784FEA187911
:100350004FF00F0808FA09F825EA0805DFF8A08130
:10036000424502D14FF0000824E0DFF89881424571
:1003700002D14FF001081DE0DFF88C81424502D127
:100380004FF0020816E0DFF88481424502D14FF0B9
:1003900003080FE0DFF87881424502D14FF00408EE
:1003A00008E0DFF87081424502D14FF0050801E016
:1003B0004FF006084FEA83794FEA197908FA09F8ED
:1003C00048EA0505DFF850814FEA930948F82950BB
:1003D000D1F8048008F48038B8F5803F0BD1DFF8FD
:1003E0003C81D8F8008048EA0008DFF83091C9F86D
:1003F00000800AE075E0DFF82481D8F8008028EA60
:100400000008DFF81891C9F80080D1F8048008F4DA
:100410000038B8F5003F0ED1DFF8008108F104087C
:10042000D8F8008048EA0008DFF8F09009F10409E4
:10043000C9F800800DE0DFF8E48008F10408D8F87E
:10044000008028EA0008DFF8D49009F10409C9F80F
:100450000080D1F8048008F48018B8F5801F0ED110
:10046000DFF8B88008F10808D8F8008048EA0008EA
:10047000DFF8A89009F10809C9F800800DE0DFF85D
:100480009C8008F10808D8F8008028EA0008DFF806
:100490008C9009F10809C9F80080D1F8048008F4AB
:1004A0000018B8F5001F0ED1DFF8708008F10C08B5
:1004B000D8F8008048EA0008DFF8609009F10C09DC
:1004C000C9F800800DE0DFF8548008F10C08D8F876
:1004D000008028EA0008DFF8449009F10C09C9F807
:1004E00000805B1CD1F8008028FA03F8B8F1000FF7
:1004F0007FF47CAEBDE8F8870000111000100240C8
:1005000000080140000C01400010014000140140AF
:1005100000180140001C0140080001400004014097
:10052000C2680A400AB1416100E0016170470AB146
:10053000016101E00B04036170470000014800689D
:100540007047000004000020034800680349097850
:100550000844014908607047040000200C00002096
:1005600010B50848006840F01000064908600520F2
:1005700000F070F80F2000F007F800F02BF80020D2
:1005800010BD00000020024070B504460E480078FF
:100590004FF47A71B1FBF0F00C490968B1FBF0F54A
:1005A000284600F0C7FB08B1012070BD102C07D20F
:1005B00000222146501E00F00EF80548046001E0BC
:1005C0000120F2E70020F0E70C00002000000020EE
:1005D0000800002070472DE9F05F80460D46164662
:1005E000002700F055FC074639462A46334601F0FD
:1005F0000700C0F1070ABAF1040F02D94FF0040A4C
:1006000001E0C0F1070AD14600F1040ABAF1070F70
:1006100002D24FF0000A01E0A0F1030AD4464FF0E5
:10062000010A0AFA09FAAAF1010A0AEA020A0AFA0E
:100630000CFA4FF0010B0BFA0CFBABF1010B0BEAC0
:10064000030B4AEA0B042146404600F029FCBDE8B2
:10065000F09F000000BF00F00702064B19684FF63C
:10066000FF031940044B0B4343EA0221014B19607D
:1006700000BF70470CED00E00000FA0570B50446BD
:100680000D460CB9012070BD5A48006800F0070003
:10069000A8420ED25748006820F007002843554969
:1006A00008600846006800F00700A84201D0012059
:1006B000E9E7207800F0020002281DD1207800F040
:1006C0000400042805D14C48406840F4E0604A49E1
:1006D0004860207800F00800082805D146484068A6
:1006E00040F46050444948604348406820F0F000BE
:1006F000A168084340494860207800F0010078B3C1
:100700006068012806D13C48006800F4003090B9C8
:100710000120B8E76068022806D13748006800F079
:10072000007040B90120AEE73348006800F00200D5
:1007300008B90120A7E73048406820F0030061684D
:1007400008432D494860FFF7F9FE064609E0FFF728
:10075000F5FE801B41F28831884202D9032092E7DE
:1007600007E02548406800F00C006168B0EB810F9D
:10077000EDD12048006800F00700A8420ED91D48BE
:10078000006820F0070028431A49086008460068FE
:1007900000F00700A84201D0012074E7207800F0A3
:1007A0000400042807D11448406820F4E060E168A0
:1007B000084311494860207800F00800082808D153
:1007C0000D48406820F46050216940EAC1000A49A0
:1007D000486000F01FF808494968C1F30311074A4F
:1007E000515CC8400649086006480068FFF7CCFE27
:1007F000002048E70020024000100240A60F000839
:100800000000002008000020014800687047000038
:1008100000000020F0B585B00FF26C0C9CE8E010F1
:1008200001A8A0E8E0101CA52D6800950021002279
:10083000002300240020194D696801F00C05F5B172
:10084000042D02D0082D19D101E0154819E001ADA1
:10085000C1F38346AC5D01F4803555B10F4D6D6831
:10086000C5F340451DF805200D4D6543B5FBF2F37A
:1008700002E00C4D04FB05F3184602E000BF0848F7
:1008800000BF00BF05B0F0BD02030405060708095C
:100890000A0B0C0D0E0F1010010200000010024098
:1008A00000127A0000093D00F8B504460CB9012099
:1008B000F8BD207800F00100002878D0F8484068A2
:1008C00000F00C0004280CD0F548406800F00C0043
:1008D000082811D1F248406800F48030B0F5803F1C
:1008E0000AD1EF48006800F4003000285FD060684B
:1008F00000285CD10120DBE700BF6068B0F5803FD5
:1009000006D1E748006840F48030E549086028E0F7
:10091000606858B9E248006820F48030E049086017
:100920000846006820F4802008601AE06068B0F58E
:10093000A02F0BD1DA48006840F48020D849086025
:100940000846006840F4803008600AE0D448006837
:1009500020F48030D24908600846006820F48020E6
:10096000086000BF606888B1FFF7E8FD054606E053
:10097000FFF7E4FD401B642801D9032098E7C8482D
:10098000006800F400300028F2D010E0FFF7D6FD38
:10099000054606E0FFF7D2FD401B642801D903207D
:1009A00086E7BF48006800F400300028F2D12078C4
:1009B00000F00200022857D1B948406800F00C004E
:1009C00050B1B748406800F00C00082818D1B4486E
:1009D000406800F4803098B9B148006800F0020027
:1009E00020B12069012801D0012061E7AC480068EE
:1009F00020F0F800616940EAC100A949086033E0CD
:100A00002069E8B10120A7490860FFF797FD054676
:100A100006E0FFF793FD401B022801D9032047E7BA
:100A20009F48006800F002000028F2D09C4800684F
:100A300020F0F800616940EAC1009949086013E0BC
:100A4000002098490860FFF779FD054606E0FFF7AA
:100A500075FD401B022801D9032029E79048006852
:100A600000F002000028F2D1207800F008000828E9
:100A70002DD1A069B8B101208B490860FFF75EFD58
:100A8000054606E0FFF75AFD401B022801D9032066
:100A90000EE78348406A00F002000028F2D00120EF
:100AA00000F068F913E000207F490860FFF746FD79
:100AB000054606E0FFF742FD401B022801D903204E
:100AC000F6E67748406A00F002000028F2D120786C
:100AD00000F00400042873D100277148C06900F0B9
:100AE000805070B900BF6E48C06940F080506C49BA
:100AF000C8610846C06900F08050009000BF00BF88
:100B000001276A48006800F48070B0B9674800683F
:100B100040F4807065490860FFF710FD054606E067
:100B2000FFF70CFD401B642801D90320C0E65F4895
:100B3000006800F480700028F2D000BFE06801284F
:100B400006D15748006A40F001005549086227E085
:100B5000E06858B95248006A20F001005049086224
:100B60000846006A20F00400086219E0E0680528E1
:100B70000BD14B48006A40F004004949086208461E
:100B8000006A40F0010008620AE04548006A20F06F
:100B90000100434908620846006A20F00400086228
:100BA00000BFE068A0B1FFF7C9FC054609E0FFF708
:100BB000C5FC401B41F28831884202D9032077E608
:100BC00022E03748006A00F002000028EFD012E06F
:100BD000FFF7B4FC054608E0FFF7B0FC401B41F20C
:100BE0008831884201D9032062E62D48006A00F06E
:100BF00002000028F0D1012F05D12948C06920F05A
:100C000080502749C86100BFE069C8B324484068E4
:100C100000F00C00082860D0E069022848D10020CC
:100C200020490866FFF78AFC054606E0FFF786FCC8
:100C3000401B022801D903203AE61948006800F059
:100C400000700028F2D1206AB0F5803F07D1144827
:100C5000406820F40030A168084311494860D4E995
:100C6000080108430E49496821F4741108430C49EE
:100C7000486001200B490866FFF760FC054607E065
:100C80003DE0FFF75BFC401B022801D903200FE683
:100C90000348006800F000700028F2D02FE0000048
:100CA00000100240000042428004424200700040B6
:100CB000002014490866FFF741FC054606E0FFF7EF
:100CC0003DFC401B022801D90320F1E50E480068D5
:100CD00000F000700028F2D111E0E069012800D195
:100CE000E6E50948466806F48031206A814204D16D
:100CF00006F47011606A814201D00120D8E500201D
:100D0000D6E500000000424200100240042808D14D
:100D10004FF0E021096941F004014FF0E022116138
:100D200007E04FF0E021096921F004014FF0E022D3
:100D30001161704770B504462546681EB0F1807F8A
:100D400001D301200FE0681E4FF0E02148610F2120
:100D50004FF0FF3000F0A4F800204FF0E021886150
:100D600007200861002070BD00BFFEE700BFFEE75E
:100D70007047704708B508490968C9084FF47A7286
:100D8000B1FBF2F14143009100BF00BF00994A1E40
:100D900000920029F9D108BD00000020704710B56D
:100DA000FFF7D2FB10BD10B590B014210BA8FFF7D0
:100DB000E2F9282101A8FFF7DEF9022001900020C6
:100DC00002900490012005901020069000200390CE
:100DD00002200890002109914FF460110A9101A8A6
:100DE000FFF762FD08B100BFFEE70F200B90022065
:100DF0000C9000200D900F904FF480600E90022117
:100E00000BA8FFF73BFC08B100BFFEE7FFF7FCFCB7
:100E10004FF47A71B0FBF1F42046FFF78BFF04200A
:100E2000FFF774FF00221146501EFFF7D4FB10B0ED
:100E300010BD00001148006840F001000F49086033
:100E4000084640680E4908400C494860084600685A
:100E50000C490840094908600846006820F48020D1
:100E600008600846406820F4FE0048604FF41F0008
:100E70008860C80304490860704700000010024001
:100E80000000FFF8FFFFF6FE08ED00E000BFFEE700
:100E900002480068C0F30220704700000CED00E03B
:100EA00010B5002804DB0A07130E054A135406E0A8
:100EB0000A07140E034A00F00F031B1FD45410BD81
:100EC00000E400E018ED00E002E008C8121F08C1CD
:100ED000002AFAD170477047002001E001C1121FBB
:100EE000002AFBD1704710B5FFF73AFBFFF75BFF15
:100EF00010BD000000B585B0002001900290039065
:100F0000049000BF1648806940F0200014498861B1
:100F10000846806900F02000009000BF00BF00BFBD
:100F20000846806940F0040088610846806900F046
:100F30000400009000BF00BF002203210948FFF712
:100F4000F6FA032001900120029000200390032074
:100F5000049001A90348FFF743F905B000BD000064
:100F6000001002400008014010B501210448FFF7BD
:100F7000D7FA02210248FFF7D3FA002010BD000083
:100F80000008014000F008F805E0FFF7EDFF4FF41E
:100F90007A70FFF711F9F8E710B5FFF7A4FFFFF734
:100FA000A9FF002010BD00000000000000000102A9
:100FB0000304060708090000000001020304000002
:100FC000E00F00080000002010000000C80E00081C
:100FD000F00F00081000002000040000D80E0008E8
:100FE0000024F400000000001000000001000000D8
:0400000508000131BD
:00000001FF
