:020000040800F2
:1000000010070020CD010008191100086D1000082C
:100010001511000865030008D51300080000000052
:100020000000000000000000000000004511000872
:1000300069030008000000001B11000847110008B8
:10004000E7010008E7010008E7010008E7010008F0
:10005000E7010008E7010008E7010008E7010008E0
:10006000E7010008E7010008E7010008E7010008D0
:10007000E7010008E7010008E7010008E7010008C0
:10008000E7010008E7010008E7010008E7010008B0
:10009000E7010008E7010008E7010008E7010008A0
:1000A000E7010008E7010008E7010008E701000890
:1000B000E7010008E7010008E7010008E701000880
:1000C000E7010008E7010008E7010008E701000870
:1000D000E7010008E7010008E7010008E701000860
:1000E000E7010008E7010008E7010008E701000850
:1000F000E7010008E7010008E7010008E701000840
:10010000E7010008E7010008E7010008E70100082F
:10011000E7010008E7010008E7010008E70100081F
:10012000E7010008E7010008E7010008E70100080F
:1001300000F002F800F03AF80AA090E8000C8244BF
:100140008344AAF10107DA4501D100F02FF8AFF29C
:10015000090EBAE80F0013F0010F18BFFB1A43F0A5
:10016000010318476814000088140000103A24BFE7
:1001700078C878C1FAD8520724BF30C830C144BF0C
:1001800004680C607047000000230024002500264E
:10019000103A28BF78C1FBD8520728BF30C148BFEA
:1001A0000B6070471FB51FBD10B510BD00F096F86D
:1001B0001146FFF7F7FF01F05DF900F0C8F803B44E
:1001C000FFF7F2FF03BC01F023F900000948804764
:1001D00009480047FEE7FEE7FEE7FEE7FEE7FEE729
:1001E000FEE7FEE7FEE7FEE704480549054A064B41
:1001F00070470000DD1100083101000810010020E7
:10020000100700201003002010030020704700009A
:100210000FB4044910B503AA029800F031F810BCDD
:100220005DF814FB100000204FF0000200B51346EB
:1002300094469646203922BFA0E80C50A0E80C5006
:10024000B1F12001BFF4F7AF090728BFA0E80C50B7
:1002500048BF0CC05DF804EB890028BF40F8042BB0
:1002600008BF704748BF20F8022B11F0804F18BF1D
:1002700000F8012B704770477047704770470000C7
:10028000074B70B50D467B4400F011F80446284634
:1002900000F020F810B14FF0FF3070BD204670BD67
:1002A0009711000001694A1C02610878704700B587
:1002B0008FB0CDE901310021059105497944CDE99F
:1002C00003101146684600F02EF80FB000BD000084
:1002D000E5FFFFFF007B00F080007047754600F0EF
:1002E0003DF8AE4605006946534620F007008546B6
:1002F00018B020B5FFF778FFBDE820404FF00006AA
:100300004FF000074FF000084FF0000B21F00701FD
:10031000AC46ACE8C009ACE8C009ACE8C009ACE840
:10032000C0098D4670472DE9F04106460024D6E904
:100330000170F5688046304603E04146B847641CCA
:100340003046A8470028F8D12046BDE8F081044691
:10035000AFF300802046FFF732FF000000487047EF
:10036000B000002000BFFEE7704700002DE9F8470D
:10037000024600239C467BE14FF0010808FA03F493
:10038000D1F8008008EA0400A0427DD1DFF8F4A291
:10039000D1F80480A8EB0A09D0453AD014DCB8F1B2
:1003A000030F50D009DCB8F1000F31D0B8F1010FC4
:1003B0001CD0B8F1020F49D120E0B8F1110F18D0CC
:1003C000B8F1120F42D11EE0B9F5881F25D006DC26
:1003D000B9F5803F20D0B9F5801F37D11AE0B9F5C3
:1003E000001F18D0B9F5041F30D117E0D1F80CC0A8
:1003F0002DE0D1F80C8008F1040C28E0D1F80C8035
:1004000008F1080C23E0D1F80C8008F10C0C1EE078
:1004100000BF00BF00BF00BF00BF00BFD1F8088011
:10042000B8F1000F02D14FF0040C0BE0D1F80880B6
:10043000B8F1010F03D14FF0080C146102E04FF046
:10044000080C546103E04FF0000C00E000BF00BF57
:10045000FF2801D8904601E002F104084646FF2833
:1004600002D84FEA830803E0A3F108084FEA88089E
:100470004746D6F800804FF00F0909FA07F928EA35
:1004800009080CFA07F900E07AE048EA0908C6F81A
:100490000080D1F8048008F08058B8F1805F6FD1F7
:1004A00000BFDFF8E481D8F8188048F00108DFF8D1
:1004B000D891C9F81880C846D8F8188008F0010803
:1004C000CDF8008000BF00BF4FEAB9384FEA93096A
:1004D00058F829504FEA83784FEA18794FF00F08FF
:1004E00008FA09F825EA0805DFF8A081424502D19B
:1004F0004FF0000824E0DFF89881424502D14FF028
:1005000001081DE0DFF88C81424502D14FF002085E
:1005100016E0DFF88481424502D14FF003080FE076
:10052000DFF87881424502D14FF0040808E0DFF897
:100530007081424502D14FF0050801E04FF00608F6
:100540004FEA83794FEA197908FA09F848EA05056C
:10055000DFF850814FEA930948F82950D1F8048018
:1005600008F48038B8F5803F0BD1DFF83C81D8F82B
:10057000008048EA0008DFF83091C9F800800AE0FE
:1005800075E0DFF82481D8F8008028EA0008DFF859
:100590001891C9F80080D1F8048008F40038B8F543
:1005A000003F0ED1DFF8008108F10408D8F8008080
:1005B00048EA0008DFF8F09009F10409C9F8008062
:1005C0000DE0DFF8E48008F10408D8F8008028EA9C
:1005D0000008DFF8D49009F10409C9F80080D1F8C7
:1005E000048008F48018B8F5801F0ED1DFF8B880B9
:1005F00008F10808D8F8008048EA0008DFF8A89059
:1006000009F10809C9F800800DE0DFF89C8008F1C5
:100610000808D8F8008028EA0008DFF88C9009F173
:100620000809C9F80080D1F8048008F40018B8F56A
:10063000001F0ED1DFF8708008F10C08D8F8008098
:1006400048EA0008DFF8609009F10C09C9F8008059
:100650000DE0DFF8548008F10C08D8F8008028EA93
:100660000008DFF8449009F10C09C9F800805B1C10
:10067000D1F8008028FA03F8B8F1000F7FF47CAEBF
:10068000BDE8F8870000111000100240000801408A
:10069000000C01400010014000140140001801400E
:1006A000001C01400800014000040140C2680A40EB
:1006B0000AB1416100E0016170470AB1016101E0E6
:1006C0000B04036170470000014800687047000098
:1006D00004000020034800680349097808440149E0
:1006E00008607047040000200C00002010B5084886
:1006F000006840F0100006490860052000F08EF800
:100700000F2000F007F800F02BF8002010BD0000CB
:100710000020024070B504460E4800784FF47A710C
:10072000B1FBF0F00C490968B1FBF0F5284600F088
:1007300005FC08B1012070BD102C07D20022214613
:10074000501E00F02DF80548046001E00120F2E79A
:100750000020F0E70C00002000000020080000202E
:1007600008B500BF0D48806940F001000B49886161
:100770000846806900F00100009000BF00BF00BF84
:100780000846C06940F08050C8610846C06900F062
:100790008050009000BF00BF08BD00000010024064
:1007A0002DE9F05F80460D461646002700F014FE46
:1007B000074639462A46334601F00700C0F1070ACA
:1007C000BAF1040F02D94FF0040A01E0C0F1070AA0
:1007D000D14600F1040ABAF1070F02D24FF0000A25
:1007E00001E0A0F1030AD4464FF0010A0AFA09FA1F
:1007F000AAF1010A0AEA020A0AFA0CFA4FF0010BFE
:100800000BFA0CFBABF1010B0BEA030B4AEA0B04EE
:100810002146404600F0E8FDBDE8F09F00BF00F033
:100820000702064B19684FF6FF031940044B0B43B0
:1008300043EA0221014B196000BF70470CED00E054
:100840000000FA0570B504460D460CB9012070BDD4
:100850005A48006800F00700A8420ED257480068C6
:1008600020F007002843554908600846006800F05A
:100870000700A84201D00120E9E7207800F002003B
:1008800002281DD1207800F00400042805D14C482E
:10089000406840F4E0604A494860207800F0080071
:1008A000082805D14648406840F4605044494860F3
:1008B0004348406820F0F000A16808434049486080
:1008C000207800F0010078B36068012806D13C4828
:1008D000006800F4003090B90120B8E76068022891
:1008E00006D13748006800F0007040B90120AEE73B
:1008F0003348006800F0020008B90120A7E730483B
:10090000406820F00300616808432D494860FFF704
:10091000DBFE064609E0FFF7D7FE801B41F2883177
:10092000884202D9032092E707E02548406800F09A
:100930000C006168B0EB810FEDD12048006800F039
:100940000700A8420ED91D48006820F00700284380
:100950001A4908600846006800F00700A84201D064
:10096000012074E7207800F00400042807D114481F
:10097000406820F4E060E16808431149486020784D
:1009800000F00800082808D10D48406820F46050A5
:10099000216940EAC1000A49486000F03FF808496F
:1009A0004968C1F30311074A515CC8400649086011
:1009B00006480068FFF7AEFE002048E7002002402E
:1009C00000100240B41500080000002008000020BC
:1009D00001480068704700000000002000B5FFF7E4
:1009E000F7FF04494968C1F30221034A515CC8403A
:1009F00000BD000000100240C415000800B5FFF75C
:100A0000E7FF04494968C1F3C221034A515CC84069
:100A100000BD000000100240C4150008F0B585B00C
:100A20000FF26C0C9CE8E01001A8A0E8E0101CA5F7
:100A30002D68009500210022002300240020194D7C
:100A4000696801F00C05F5B1042D02D0082D19D10B
:100A500001E0154819E001ADC1F38346AC5D01F436
:100A6000803555B10F4D6D68C5F340451DF8052023
:100A70000D4D6543B5FBF2F302E00C4D04FB05F3AD
:100A8000184602E000BF084800BF00BF05B0F0BD37
:100A900002030405060708090A0B0C0D0E0F1010BF
:100AA000010200000010024000127A0000093D001F
:100AB000F8B504460CB90120F8BD207800F001001B
:100AC000002878D0F848406800F00C0004280CD0CA
:100AD000F548406800F00C00082811D1F248406841
:100AE00000F48030B0F5803F0AD1EF48006800F490
:100AF000003000285FD0606800285CD10120DBE76F
:100B000000BF6068B0F5803F06D1E748006840F458
:100B10008030E549086028E0606858B9E24800681C
:100B200020F48030E04908600846006820F4802006
:100B300008601AE06068B0F5A02F0BD1DA480068B1
:100B400040F48020D84908600846006840F48030AE
:100B500008600AE0D448006820F48030D249086078
:100B60000846006820F48020086000BF606888B1F3
:100B7000FFF7AAFD054606E0FFF7A6FD401B642827
:100B800001D9032098E7C848006800F40030002825
:100B9000F2D010E0FFF798FD054606E0FFF794FD60
:100BA000401B642801D9032086E7BF48006800F491
:100BB00000300028F2D1207800F00200022857D13E
:100BC000B948406800F00C0050B1B748406800F0E8
:100BD0000C00082818D1B448406800F4803098B957
:100BE000B148006800F0020020B12069012801D05E
:100BF000012061E7AC48006820F0F800616940EA34
:100C0000C100A949086033E02069E8B10120A74983
:100C10000860FFF759FD054606E0FFF755FD401B4C
:100C2000022801D9032047E79F48006800F002002E
:100C30000028F2D09C48006820F0F800616940EA82
:100C4000C1009949086013E0002098490860FFF747
:100C50003BFD054606E0FFF737FD401B022801D9A2
:100C6000032029E79048006800F002000028F2D134
:100C7000207800F0080008282DD1A069B8B1012023
:100C80008B490860FFF720FD054606E0FFF71CFDD5
:100C9000401B022801D903200EE78348406A00F078
:100CA00002000028F2D0012000F038FA13E0002002
:100CB0007F490860FFF708FD054606E0FFF704FDE1
:100CC000401B022801D90320F6E67748406A00F06D
:100CD00002000028F2D1207800F00400042873D12B
:100CE00000277148C06900F0805070B900BF6E489D
:100CF000C06940F080506C49C8610846C06900F086
:100D00008050009000BF00BF01276A48006800F4CF
:100D10008070B0B96748006840F480706549086029
:100D2000FFF7D2FC054606E0FFF7CEFC401B642827
:100D300001D90320C0E65F48006800F480700028F5
:100D4000F2D000BFE068012806D15748006A40F0A1
:100D500001005549086227E0E06858B95248006A26
:100D600020F00100504908620846006A20F00400A3
:100D7000086219E0E06805280BD14B48006A40F092
:100D80000400494908620846006A40F00100086210
:100D90000AE04548006A20F001004349086208461D
:100DA000006A20F00400086200BFE068A0B1FFF70D
:100DB0008BFC054609E0FFF787FC401B41F28831B8
:100DC000884202D9032077E622E03748006A00F023
:100DD00002000028EFD012E0FFF776FC054608E09D
:100DE000FFF772FC401B41F28831884201D9032091
:100DF00062E62D48006A00F002000028F0D1012FC1
:100E000005D12948C06920F080502749C86100BF3A
:100E1000E069C8B32448406800F00C00082860D09E
:100E2000E069022848D1002020490866FFF74CFC01
:100E3000054606E0FFF748FC401B022801D90320C5
:100E40003AE61948006800F000700028F2D1206AE4
:100E5000B0F5803F07D11448406820F40030A16805
:100E6000084311494860D4E9080108430E4949681C
:100E700021F4741108430C49486001200B490866AD
:100E8000FFF722FC054607E03DE0FFF71DFC401B95
:100E9000022801D903200FE60348006800F0007023
:100EA0000028F2D02FE00000001002400000424273
:100EB0008004424200700040002014490866FFF799
:100EC00003FC054606E0FFF7FFFB401B022801D9A3
:100ED0000320F1E50E48006800F000700028F2D110
:100EE00011E0E069012800D1E6E50948466806F40A
:100EF0008031206A814204D106F47011606A814217
:100F000001D00120D8E50020D6E5000000004242D3
:100F100000100240042808D14FF0E021096941F097
:100F200004014FF0E022116107E04FF0E021096970
:100F300021F004014FF0E0221161704770B50446C2
:100F40002546681EB0F1807F01D301200FE0681EA6
:100F50004FF0E02148610F214FF0FF3000F044FADC
:100F600000204FF0E021886107200861002070BD5B
:100F700010B504460CB9012010BDA06900B100E015
:100F800000BF94F8390028B9002084F838002046C2
:100F900000F028F8242084F839002068C06820F484
:100FA00000502168C860204600F044F920680069BC
:100FB00020F49040216808612068406920F02A00F0
:100FC000216848612068C06840F400502168C8600A
:100FD0000020E063202084F8390084F83A000020E3
:100FE000CAE7000010B586B00446002002900390C6
:100FF000049005901A49206888422ED100BF1948F4
:10100000806940F48040174988610846806900F48F
:101010008040019000BF00BF00BF0846806940F0DB
:10102000040088610846806900F00400019000BF58
:1010300000BF48150290022003900320059002A9EA
:101040000948FFF793F94FF4806002900020039065
:10105000049002A90448FFF789F906B010BD00000A
:1010600000380140001002400008014000BFFEE7C8
:1010700000B585B00020019002900390049000BF5D
:101080001648806940F0200014498861084680694C
:1010900000F02000009000BF00BF00BF084680693C
:1010A00040F0040088610846806900F00400009068
:1010B00000BF00BF012203210948FFF7FEFA032009
:1010C000019001200290002003900320049001A9C8
:1010D0000348FFF74BF905B000BD000000100240C7
:1010E0000008014010B50948094908604FF4E13093
:1010F0004860002106488160C16001610C214161A6
:1011000000218161C161FFF733FF10BD003801404C
:101110004000002000BFFEE77047704708B508494F
:101120000968C9084FF47A72B1FBF2F141430091AA
:1011300000BF00BF00994A1E00920029F9D108BDE6
:1011400000000020704710B5FFF7C4FA00F020FA45
:1011500010BD10B590B0282106A8FFF765F814213E
:1011600001A8FFF761F80120069000040790002015
:10117000089001200A9002200D90C1030E914FF4B7
:10118000E0110F9106A8FFF793FC08B100BFFEE73E
:101190000F20019002200290002003904FF4806005
:1011A000049000200590022101A8FFF74BFB08B135
:1011B00000BFFEE7FFF70CFC4FF47A71B0FBF1F4CF
:1011C0002046FFF7BBFE0420FFF7A4FE00221146D5
:1011D000501EFFF7E5FA10B010BD0000114800687E
:1011E00040F001000F490860084640680E49084079
:1011F0000C494860084600680C49084009490860E5
:101200000846006820F4802008600846406820F402
:10121000FE0048604FF41F008860C803044908605E
:1012200070470000001002400000FFF8FFFFF6FECC
:1012300008ED00E070B504462168096921F44051C9
:10124000E2681143226811612269A1681143626951
:1012500041EA02052168C96841F20C6291432943C1
:101260002268D1602168496921F44071A269114363
:1012700022685161564A2168914254D1FFF7BEFB62
:1012800000EBC00101EB001162689200B1FBF2F1CA
:1012900000EBC00202EB001263689B00B2FBF3F2AA
:1012A0006423B2FBF3F202EBC20303EB0212A1EBE5
:1012B0008201322202EB01116422B1FBF2F101F052
:1012C000F00100EBC00202EB001263689B00B2FB6E
:1012D000F3F26423B2FBF3F201EB021200EBC00164
:1012E00001EB001163689B00B1FBF3F100EBC0035D
:1012F00003EB00136668B600B3FBF6F36426B3FB9A
:10130000F6F303EBC30606EB0313A1EB83013223D1
:1013100003EB01116423B1FBF3F101F00F01114460
:101320002268916053E0FFF759FB00EBC00101EB2D
:10133000001162689200B1FBF2F100EBC00202EB17
:10134000001263689B00B2FBF3F26423B2FBF3F27A
:1013500002EBC20303EB0212A1EB8201322202EB89
:1013600001116422B1FBF2F101F0F00100EBC002C7
:1013700002EB001263689B00B2FBF3F26423B2FB42
:10138000F3F201EB021200EBC00101EB0011636804
:101390009B00B1FBF3F100EBC00303EB00136668A5
:1013A000B600B3FBF6F36426B3FBF6F303EBC30618
:1013B00006EB0313A1EB8301322303EB011164233A
:1013C000B1FBF3F101F00F0111442268916070BD8F
:1013D0000038014000BFFEE702480068C0F3022069
:1013E000704700000CED00E010B5002804DB0A0790
:1013F000130E054A135406E00A07140E034A00F0C0
:101400000F031B1FD45410BD00E400E018ED00E0F2
:1014100000BF704710B5FFF769F9FFF79AFE10BDDE
:1014200000BF054A126802F04002002AF9D0C2B299
:10143000014B1B1D1A6070470038014010B500F0C9
:1014400001F810BD10B501210248FFF72FF9002067
:1014500010BD00000008014010B500F001F810BDFB
:1014600010B502210248FFF721F9002010BD00004D
:101470000008014000F004F801E000F033F8FCE758
:1014800010B5FFF7C7FF00F007F8FFF7F1FDFFF712
:1014900029FE002010BD000070B500241AE004EB06
:1014A00044050E4E06EB8505AB6804EB440506EBE0
:1014B00085056A6804EB440556F82510084D05EBD0
:1014C000041000F015F8294601EB041000F038F87C
:1014D000601CC4B2032CE2DB002070BD14000020AD
:1014E0008000002010B500F00DF8002010BD0000B5
:1014F00010B58160024C246814440460436010BD40
:101500003C00002010B50C48046812E00B4920682C
:10151000096888420CD8606818B9204600F026F89F
:1015200004E006496068096808442060A0688047B4
:10153000E468002CEAD110BD380000203C000020F7
:1015400001460948026805E08A4202D14FF0FF30A7
:101550007047D268002AF7D103480068C860024883
:1015600001600020F4E70000380000200246074830
:1015700008E00168914202D1CB68036001E001F10B
:101580000C0000BF01680029F3D17047380000202B
:1015900002480068401C0149086070473C00002078
:1015A00010B502A0FEF734FE10BD00007373730A7D
:1015B0000D00000000000000000000000102030414
:1015C000060708090000000001020304EC150008EA
:1015D00000000020400000006C0100082C160008EC
:1015E00040000020D0060000880100080024F4001C
:1015F00000000000100000000100000000000000DA
:101600003D140008E8030000E80300005914000836
:10161000F4010000F4010000A11500088813000087
:0C16200088130000000000000000000023
:0400000508000131BD
:00000001FF
