:020000040800F2
:1000000048070020310200088D0500088905000816
:100010008B050008E9040008C90900080000000079
:10002000000000000000000000000000D5060008ED
:10003000EB04000800000000F9050008AD07000807
:100040004B0200084B0200084B0200084B0200085C
:100050004B0200084B0200084B0200084B0200084C
:100060004B0200084B0200084B0200084B0200083C
:100070004B0200084B0200084B0200084B0200082C
:100080004B0200084B0200084B0200084B0200081C
:100090004B0200084B0200084B0200084B0200080C
:1000A0004B0200084B0200084B0200084B020008FC
:1000B0004B0200084B0200084B0200084B020008EC
:1000C0004B0200084B0200084B0200084B020008DC
:1000D0004B0200080D0800084B0200084B02000804
:1000E0004B0200084B0200084B0200084B020008BC
:1000F0004B0200084B0200084B0200084B020008AC
:100100004B0200084B0200084B0200084B0200089B
:100110004B0200084B0200084B0200084B0200088B
:100120004B0200084B0200084B0200084B0200087B
:100130004B0200084B0200084B0200084B0200086B
:100140004B0200084B0200084B0200084B0200085B
:100150004B0200084B0200084B0200084B0200084B
:100160004B0200084B0200084B0200084B0200083B
:100170004B0200084B0200084B0200084B0200082B
:100180004B0200084B02000800F002F800F041F8B2
:100190000AA090E8000C82448344AAF10107DA45E2
:1001A00001D100F036F8AFF2090EBAE80F0013F0F3
:1001B000010F18BFFB1A43F001031847A009000004
:1001C000C0090000103A24BF78C878C1FAD8520795
:1001D00024BF30C830C144BF04680C6070470000C1
:1001E0000023002400250026103A28BF78C1FBD840
:1001F000520728BF30C148BF0B607047642900F028
:100200007980002070471FB500F0A2FC1FBD10B51B
:1002100010BD00F037F91146FFF7F5FF00F02AFC9A
:1002200000F055F903B4FFF7F2FF03BC00F0CDFB7B
:100230000948804709480047FEE7FEE7FEE7FEE77A
:10024000FEE7FEE7FEE7FEE7FEE7FEE704480549B6
:10025000054A064B70470000B107000889010008F5
:1002600048010020480700204803002048030020E0
:10027000704700000FB4044910B503AA029800F0BB
:10028000D3F810BC5DF814FB180000202DE9F041F4
:100290000E460446002020622046E168884730B3BD
:1002A000252805D0D4E901219047206A401CF2E7B7
:1002B000E168204600278847050018D0A5F14100D5
:1002C000192802D820354FF40067324629462046C7
:1002D0002760FFF793FF40B1012804D0F61D26F0F8
:1002E00007060836D8E7361DD6E72846DAE7206A3B
:1002F000BDE8F0812DE9F04106460024106875291B
:10030000314616A510D0AFF30080002802DA404233
:1003100013A507E031688A0701D512A502E0490755
:1003200004D511A5012401E0AFF3008000210A22C9
:1003300006F1240709E0B0FBF2FCB0FBF2F302FB8C
:100340001C00303078541846491C0028F3D123464D
:100350002A463046BDE8F04100F00CB8000000002D
:100360002D0000002B0000002000000070477047A7
:10037000704770472DE9F0470D469946924604466E
:1003800000F124080168880604D5E06921F0100115
:10039000216000E00120A84201DD471B00E00027AA
:1003A000A1697A1902EB0900081AA0612078C00639
:1003B00002D42046AFF30080002608E0D4E90121F2
:1003C0001AF806009047206A401C761C20624E45B1
:1003D000F4DB2078C0060AD52046AFF3008006E0A3
:1003E000D4E9012130209047206A401C2062381E49
:1003F000A7F10107F4DC07E0D4E9012118F80500B2
:100400009047206A401C2062281EA5F10105F3DCFC
:100410002046AFF300802078000602D50220BDE818
:10042000F0870120FBE70000074B70B50D467B44C9
:1004300000F011F80446284600F020F810B14FF003
:10044000FF3070BD204670BD2F06000001694A1CB8
:1004500002610878704700B58FB0CDE90131002105
:10046000059105497944CDE9031011466846FFF727
:100470000DFF0FB000BD0000E5FFFFFF007B00F0A7
:1004800080007047754600F02BF8AE4605006946BF
:10049000534620F00700854618B020B5FFF7D6FE7A
:1004A000BDE820404FF000064FF000074FF0000875
:1004B0004FF0000B21F00701AC46ACE8C009ACE8F6
:1004C000C009ACE8C009ACE8C0098D46704710B55A
:1004D0000446AFF300802046BDE81040FFF7A2BEFF
:1004E00000487047E4000020FEE770472DE9F04126
:1004F000002201274FF0030C07FA02F50B682B408E
:10050000AB422CD1066853000CFA03F4A6430660F4
:100510000E79D0F800809E4046EA080606600E7903
:10052000012E01D0022E12D18668A64386604E7934
:10053000D0F808809E4046EA080686604668AE43CA
:10054000466045688E799640B6B235434560C568C9
:10055000A543C560CC799C40C3681C43C460521C51
:10056000102AC9D3BDE8F08110B54B07DB0E9A40C5
:10057000C90800EB8100016A0F249C40A14301627D
:10058000016A1143016210BDFEE7FEE770470000FB
:1005900030B50F23C27801250178002A1FD0154AF3
:1005A000126802F4E062C2F5E062C2F30722C2F10F
:1005B0000404D3404278A24084781C4014432201B2
:1005C00001F1E02181F80024007800F01F018D4046
:1005D0004009800000F1E020C0F8005130BD01F07A
:1005E0001F0085404809800000F1E020C0F88051DC
:1005F00030BD00000CED00E070470000054A002906
:1006000003D0116801431160704711688143116084
:100610007047000030380240054A002903D01168B5
:1006200001431160704711688143116070470000F9
:100630004438024070B5244B196801F00C01234C7A
:1006400000291ED0661004291DD008291DD0046081
:10065000196801F0F00109091D4A545C0168E14084
:1006600041601C6804F4E054A40A145D21FA04F407
:1006700084601B6803F460435B0BD25CD140C160B3
:1006800070BD0460E4E70660E2E70F4A121F1168DC
:10069000C1F38055116801F03F0135B1B6FBF1F1AE
:1006A0001468C4F38814614305E0B4FBF1F11468E5
:1006B000C4F3881461431268C2F30142521C520011
:1006C000B1FBF2F10160C3E7083802400024F400F6
:1006D00000000020704700000CB50022019200923B
:1006E0002749086840F4803008604FF4A043086848
:1006F00000F4003000900198401C0190009810B95F
:1007000001989842F3D10868800302D50120009037
:1007100000E000920098012831D119484030026869
:1007200042F0805202601748026842F44042026080
:100730001348083002680260026842F40042026016
:10074000026842F4A0520260021F0F4B13600A6855
:1007500042F080720A600A689201FCD50B4A40F2AE
:1007600005711160016821F003010160016841F029
:10077000020101600168C1F381010229FAD10CBDB7
:10078000003802400070004008544007003C02401E
:100790004FF0E021042804D0086920F0040008612B
:1007A0007047086940F00400086170477047000016
:1007B00010B51248016841F47001016010480168E9
:1007C00041F0010101600E4A002108321160026807
:1007D0000C4B1A400260031D0B4A1A60026822F497
:1007E0008022026006480C300160FFF775FF034964
:1007F0004FF000608039086010BD000088ED00E017
:1008000000380240FFFFF6FE1030002470B5164C91
:1008100040F22551204600F039F800280ED020463D
:1008200000F0CEF8C1B2114A1088030406D4440483
:100830004FF0000307D50A2901D0138070BD40F4A2
:100840000040108070BD0D290AD0094DC0F30D0481
:100850002955401C80B21080C728F3D9138070BD81
:1008600040F48040108070BD001001401400002052
:100870001C000020002904D0818941F400518181AD
:100880007047818921F400518181704770B500243F
:1008900040F66A12C1F3421301F01F05012606FA61
:1008A00005F2012B0CD0022B0DD0838A1340090ACC
:1008B0008E40008830400BB100B10124204670BD4D
:1008C00083891340F3E7038A1340F0E710B540F63D
:1008D0006A13C1F3421301F01F040121A140012B4F
:1008E00007D0022B07D014303AB102680A430260E5
:1008F00010BD0C30F8E71030F6E702688A4302605A
:1009000010BD00007FB504460D46208A20F44051FA
:10091000E88808432082A08941F20C618843A988B5
:100920002A8911436A8902431143A181A08A20F4D4
:100930004071A8890843A0826846FFF77BFE1E48E5
:10094000844202D01D48844201D1039800E00298FD
:10095000A189090408D500EBC00101EB001029684A
:100960004900B0FBF1F007E000EBC00101EB001023
:1009700029688900B0FBF1F06422B0FBF2F10901B3
:100980000B096FF018056B4300EB8300A3891D046E
:100990004FF0320307D503EBC000B0FBF2F000F0DC
:1009A0000700084306E003EB0010B0FBF2F000F094
:1009B0000F00084320817FBD00100140001401405A
:1009C0008088C0F308007047FEE7704710B5044602
:1009D0006FF00400FFF7DCFE0649E008087000EB4A
:1009E0004002C2EBC0104FF6FF7202EAC00048801E
:1009F00010BD00001000002070B54FF40775B0FB6B
:100A0000F5F1CCB2B0FBF5F105FB110604E0284688
:100A100000F00CF8641EE4B2002CF8D1002E04D0D3
:100A20003046BDE8704000F001B870BD0B49498800
:100A300048434FF0E021486100238B61086940F092
:100A4000010008610869C20701D0C003FAD508692E
:100A500020F0010008618B61704700001000002049
:100A600003490A885206FCD5C2B28A80704700004A
:100A70000010014000244FF4E13000F013F854203E
:100A8000FFF7A4FF4FF4FA75214604A0FFF7F2FB2D
:100A90002846FFF7B1FF641CF6E70000743A2564AE
:100AA0000D0A0000F0B587B0054601210846FFF7A2
:100AB000A5FD01211020FFF7AFFD234F07220921DB
:100AC0003846FFF751FD07220A213846FFF74CFD53
:100AD0004FF4C060059002208DF818008DF81900C1
:100AE00000248DF81A4001268DF81B6005A93846B0
:100AF000FFF7FCFC0195ADF80840ADF80A40ADF8F1
:100B00000C40ADF810400C20ADF80E000F4C01A9C0
:100B10002046FFF7F7FE01212046FFF7ABFE01223A
:100B200040F225512046FFF7D1FE25208DF8000028
:100B300003208DF801008DF802008DF803606846EF
:100B4000FFF726FD07B0F0BD000002400010014095
:100B50004FF04070E1EE100A704700007C0B000877
:100B6000000000201C000000C4010008980B0008D1
:100B70001C0000202C070000E0010008000000001D
:100B80000102030401020304060708090000000033
:080B900000000000000000005D
:040000050800018965
:00000001FF
