:020000040800F2
:10000000600600200D0200085F0300085B03000883
:100010005D030008C70200089D04000800000000FE
:100020000000000000000000000000008103000844
:10003000C902000800000000610300083D04000838
:1000400027020008270200082702000827020008EC
:1000500027020008270200082702000827020008DC
:1000600027020008270200082702000827020008CC
:1000700027020008270200082702000827020008BC
:1000800027020008270200082702000827020008AC
:10009000270200082702000827020008270200089C
:1000A000270200082702000827020008270200088C
:1000B000270200082702000827020008270200087C
:1000C000270200082702000827020008270200086C
:1000D000270200082702000827020008270200085C
:1000E000270200082702000827020008270200084C
:1000F000270200082702000827020008270200083C
:10010000270200082702000827020008270200082B
:10011000270200082702000827020008270200081B
:10012000270200082702000827020008270200080B
:1001300027020008270200082702000827020008FB
:1001400027020008270200082702000827020008EB
:1001500027020008270200082702000827020008DB
:1001600027020008270200082702000827020008CB
:1001700027020008270200082702000827020008BB
:10018000270200082702000800F002F800F02EF80D
:100190000AA090E8000C82448344AAF10107DA45E2
:1001A00001D100F023F8AFF2090EBAE80F0013F006
:1001B000010F18BFFB1A43F0010318474803000062
:1001C000580300000023002400250026103A28BF11
:1001D00078C1FBD8520728BF30C148BF0B607047B9
:1001E0001FB500F089F91FBD10B510BD00F031F842
:1001F0001146FFF7F5FF00F053F900F04FF803B494
:10020000FFF7F2FF03BC00F057F8000009488047F1
:1002100009480047FEE7FEE7FEE7FEE7FEE7FEE7E8
:10022000FEE7FEE7FEE7FEE704480549054A064B00
:1002300070470000410400088901000860000020A8
:1002400060060020600200206002002070477047B6
:100250007047754600F02CF8AE46050069465346D7
:1002600020F00700854618B020B5FFF7DDFFBDE898
:1002700020404FF000064FF000074FF000084FF00D
:10028000000B21F00701AC46ACE8C009ACE8C0099E
:10029000ACE8C009ACE8C0098D46704710B504460B
:1002A000AFF300802046BDE81040FFF7A8BF000074
:1002B000004870470000002001491820ABBEFEE74F
:1002C000260002007047FEE7704701B50098411E06
:1002D0000091FBD208BD2DE9F041002201274FF02B
:1002E000030C07FA02F50B682B40AB422CD10668D1
:1002F00053000CFA03F4A64306600E79D0F8008090
:100300009E4046EA080606600E79012E01D0022EB4
:1003100012D18668A64386604E79D0F808809E4048
:1003200046EA080686604668AE43466045688E79B0
:100330009640B6B235434560C568A543C560CC79E3
:100340009C40C3681C43C460521C102AC9D3BDE83A
:10035000F0814183704701837047FEE7FEE77047F5
:1003600070470000054A002903D01168014311605D
:1003700070471168814311607047000030380240B7
:10038000704700000CB500220192009227490868CE
:1003900040F4803008604FF4A043086800F4003057
:1003A00000900198401C0190009810B90198984263
:1003B000F3D10868800302D50120009000E000928C
:1003C0000098012831D119484030026842F080522B
:1003D00002601748026842F4404202601348083045
:1003E00002680260026842F400420260026842F45D
:1003F000A0520260021F0F4B13600A6842F0807225
:100400000A600A689201FCD50B4A40F2057111603E
:10041000016821F003010160016841F002010160FF
:100420000168C1F381010229FAD10CBD00380240F4
:100430000070004019544007003C02407047000023
:1004400010B51248016841F470010160104801685C
:1004500041F0010101600E4A00210832116002687A
:100460000C4B1A400260031D0B4A1A60026822F40A
:100470008022026006480C300160FFF783FF0349C9
:100480004FF000608039086010BD000088ED00E08A
:1004900000380240FFFFF6FE10300024FEE70000A7
:1004A0001CB501212020FFF75DFF4FF4C0640094CC
:1004B00001208DF8040000218DF8061003218DF82D
:1004C00005108DF807000A4D69462846FFF703FF1F
:1004D000084E21462846FFF73EFF3046FFF7F5FE5F
:1004E00021462846FFF735FF3046FFF7EEFEF0E7DE
:1004F00000140240FFFF7F004FF04070E1EE100A51
:10050000704700001405000800000020600600008D
:04051000C40100081A
:040000050800018965
:00000001FF
