:020000040800F2
:1000000018080020D50100080D1300083F12000851
:100010000913000829040008CD160008000000009C
:10002000000000000000000000000000391300087C
:100030002D040008000000000F1300083B13000807
:10004000EF010008EF010008EF010008EF010008D0
:10005000EF010008EF010008EF010008EF010008C0
:10006000EF010008EF010008EF010008EF010008B0
:10007000EF010008EF010008EF010008EF010008A0
:10008000EF010008EF010008EF010008EF01000890
:10009000EF010008EF010008EF010008EF01000880
:1000A000EF010008EF010008EF010008EF01000870
:1000B000EF010008EF010008EF010008EF01000860
:1000C000EF010008EF010008EF010008EF01000850
:1000D000EF01000835160008EF010008EF010008E5
:1000E000EF010008EF010008EF010008EF01000830
:1000F000EF010008EF010008EF010008EF01000820
:10010000EF010008EF010008EF010008EF0100080F
:10011000EF010008EF010008EF010008EF010008FF
:10012000EF010008EF010008EF010008EF010008EF
:1001300000F002F800F03FF80AA090E8000C8244BA
:100140008344AAF10107DA4501D100F034F8AFF297
:10015000090EBAE80F0013F0010F18BFFB1A43F0A5
:10016000010318476017000080170000103A24BFF1
:1001700078C878C1FAD8520724BF30C830C144BF0C
:1001800004680C607047000000230024002500264E
:10019000103A28BF78C1FBD8520728BF30C148BFEA
:1001A0000B607047732900F0DD80002070471FB599
:1001B0001FBD10B510BD00F007F91146FFF7F7FF9E
:1001C00001F0D4FA00F025F903B4FFF7F2FF03BC05
:1001D00001F09AFA0948804709480047FEE7FEE720
:1001E000FEE7FEE7FEE7FEE7FEE7FEE7FEE7FEE7E7
:1001F00004480549054A064B70470000D113000822
:1002000031010008180200201808002018040020FE
:1002100018040020704700000FB4044910B503AA69
:10022000029800F0A3F810BC5DF814FB1400002045
:100230002DE9F0410E460446002020622046E16888
:10024000884730B3252805D0D4E901219047206A9A
:10025000401CF2E7E168204600278847050018D0D7
:10026000A5F14100192802D820354FF40067324625
:10027000294620462760FFF795FF40B1012804D0AA
:10028000F61D26F007060836D8E7361DD6E72846BD
:10029000DAE7206ABDE8F08170B50C460546012A10
:1002A00005D02878800600D5EA69002302E0012302
:1002B00005E05B1C934202D2E05C0028F9D1A869FA
:1002C000E618C01AA861286A184428622846AFF3C5
:1002D000008004E0D5E9012114F8010B9047B442F5
:1002E000F8D32846AFF3008070BD4FF0000200B590
:1002F000134694469646203922BFA0E80C50A0E849
:100300000C50B1F12001BFF4F7AF090728BFA0E8F6
:100310000C5048BF0CC05DF804EB890028BF40F8C2
:10032000042B08BF704748BF20F8022B11F0804F04
:1003300018BF00F8012B704770477047704770472F
:1003400010B5436913B1AFF3008001E0FFF7A4FFDC
:10035000012010BD127800F124010A7000224A70B9
:100360000122EDE711684FF0FF32E9E7074B70B566
:100370000D467B4400F011F80446284600F020F8B2
:1003800010B14FF0FF3070BD204670BDA3130000C8
:1003900001694A1C02610878704700B58FB0CDE949
:1003A00001310021059105497944CDE90310114639
:1003B0006846FFF73DFF0FB000BD0000E5FFFFFFFF
:1003C000007B00F080007047754600F029F8AE46CB
:1003D00005006946534620F00700854618B020B551
:1003E000FFF706FFBDE820404FF000064FF0000782
:1003F0004FF000084FF0000B21F00701AC46ACE8CD
:10040000C009ACE8C009ACE8C009ACE8C0098D4639
:1004100070470446AFF300802046FFF7D5FE00008A
:1004200000487047B401002000BFFEE7704700009D
:100430002DE9F847024600239C467BE14FF0010876
:1004400008FA03F4D1F8008008EA0400A0427DD144
:10045000DFF8F4A2D1F80480A8EB0A09D0453AD01D
:1004600014DCB8F1030F50D009DCB8F1000F31D023
:10047000B8F1010F1CD0B8F1020F49D120E0B8F15A
:10048000110F18D0B8F1120F42D11EE0B9F5881F34
:1004900025D006DCB9F5803F20D0B9F5801F37D1D3
:1004A0001AE0B9F5001F18D0B9F5041F30D117E0D4
:1004B000D1F80CC02DE0D1F80C8008F1040C28E034
:1004C000D1F80C8008F1080C23E0D1F80C8008F179
:1004D0000C0C1EE000BF00BF00BF00BF00BF00BF8C
:1004E000D1F80880B8F1000F02D14FF0040C0BE0F6
:1004F000D1F80880B8F1010F03D14FF0080C146156
:1005000002E04FF0080C546103E04FF0000C00E0F3
:1005100000BF00BFFF2801D8904601E002F10408A7
:100520004646FF2802D84FEA830803E0A3F10808F3
:100530004FEA88084746D6F800804FF00F0909FABD
:1005400007F928EA09080CFA07F900E07AE048EA16
:100550000908C6F80080D1F8048008F08058B8F186
:10056000805F6FD100BFDFF8E481D8F8188048F0D1
:100570000108DFF8D891C9F81880C846D8F8188063
:1005800008F00108CDF8008000BF00BF4FEAB9387D
:100590004FEA930958F829504FEA83784FEA1879BF
:1005A0004FF00F0808FA09F825EA0805DFF8A081DE
:1005B000424502D14FF0000824E0DFF8988142451F
:1005C00002D14FF001081DE0DFF88C81424502D1D5
:1005D0004FF0020816E0DFF88481424502D14FF067
:1005E00003080FE0DFF87881424502D14FF004089C
:1005F00008E0DFF87081424502D14FF0050801E0C4
:100600004FF006084FEA83794FEA197908FA09F89A
:1006100048EA0505DFF850814FEA930948F8295068
:10062000D1F8048008F48038B8F5803F0BD1DFF8AA
:100630003C81D8F8008048EA0008DFF83091C9F81A
:1006400000800AE075E0DFF82481D8F8008028EA0D
:100650000008DFF81891C9F80080D1F8048008F488
:100660000038B8F5003F0ED1DFF8008108F104082A
:10067000D8F8008048EA0008DFF8F09009F1040992
:10068000C9F800800DE0DFF8E48008F10408D8F82C
:10069000008028EA0008DFF8D49009F10409C9F8BD
:1006A0000080D1F8048008F48018B8F5801F0ED1BE
:1006B000DFF8B88008F10808D8F8008048EA000898
:1006C000DFF8A89009F10809C9F800800DE0DFF80B
:1006D0009C8008F10808D8F8008028EA0008DFF8B4
:1006E0008C9009F10809C9F80080D1F8048008F459
:1006F0000018B8F5001F0ED1DFF8708008F10C0863
:10070000D8F8008048EA0008DFF8609009F10C0989
:10071000C9F800800DE0DFF8548008F10C08D8F823
:10072000008028EA0008DFF8449009F10C09C9F8B4
:1007300000805B1CD1F8008028FA03F8B8F1000FA4
:100740007FF47CAEBDE8F887000011100010024075
:1007500000080140000C014000100140001401405D
:1007600000180140001C0140080001400004014045
:10077000C2680A400AB1416100E0016170470AB1F4
:10078000016101E00B04036170470000014800684B
:1007900070470000040000200348006803490978FE
:1007A0000844014908607047040000200C00002044
:1007B00010B50848006840F01000064908600520A0
:1007C00000F09EF80F2000F007F800F02BF8002052
:1007D00010BD00000020024070B504460E480078AD
:1007E0004FF47A71B1FBF0F00C490968B1FBF0F5F8
:1007F000284600F015FC08B1012070BD102C07D26E
:1008000000222146501E00F03DF80548046001E03A
:100810000120F2E70020F0E70C000020000000209B
:100820000800002008B500BF0D48806940F00100B5
:100830000B4988610846806900F00100009000BF04
:1008400000BF00BF0846C06940F08050C86108463C
:10085000C06900F08050009000BF00BF08BD0000DC
:100860000010024001460846002809DB00F01F0383
:1008700001229A4043099B0003F1E023C3F80021C1
:1008800000BF70472DE9F05F80460D4616460027F1
:1008900000F01EFF074639462A46334601F007009E
:1008A000C0F1070ABAF1040F02D94FF0040A01E0BF
:1008B000C0F1070AD14600F1040ABAF1070F02D2CB
:1008C0004FF0000A01E0A0F1030AD4464FF0010AFC
:1008D0000AFA09FAAAF1010A0AEA020A0AFA0CFA61
:1008E0004FF0010B0BFA0CFBABF1010B0BEA030B06
:1008F0004AEA0B042146404600F0F2FEBDE8F09FB4
:1009000000BF00F00702064B19684FF6FF031940BD
:10091000044B0B4343EA0221014B196000BF7047AF
:100920000CED00E00000FA0570B504460D460CB968
:10093000012070BD5A48006800F00700A8420ED29E
:100940005748006820F007002843554908600846CA
:10095000006800F00700A84201D00120E9E72078F4
:1009600000F0020002281DD1207800F004000428C5
:1009700005D14C48406840F4E0604A49486020781E
:1009800000F00800082805D14648406840F460504F
:10099000444948604348406820F0F000A16808439B
:1009A00040494860207800F0010078B36068012871
:1009B00006D13C48006800F4003090B90120B8E747
:1009C0006068022806D13748006800F0007040B91E
:1009D0000120AEE73348006800F0020008B90120AA
:1009E000A7E73048406820F00300616808432D49BC
:1009F0004860FFF7CBFE064609E0FFF7C7FE801B05
:100A000041F28831884202D9032092E707E0254865
:100A1000406800F00C006168B0EB810FEDD1204818
:100A2000006800F00700A8420ED91D48006820F0B9
:100A3000070028431A4908600846006800F00700CC
:100A4000A84201D0012074E7207800F004000428B7
:100A500007D11448406820F4E060E1680843114978
:100A60004860207800F00800082808D10D48406848
:100A700020F46050216940EAC1000A49486000F052
:100A80003FF808494968C1F30311074A515CC8405F
:100A90000649086006480068FFF79EFE002048E708
:100AA0000020024000100240AC18000800000020A6
:100AB0000800002001480068704700000000002086
:100AC00000B5FFF7F7FF04494968C1F30221034A63
:100AD000515CC84000BD000000100240BC18000876
:100AE00000B5FFF7E7FF04494968C1F3C221034A93
:100AF000515CC84000BD000000100240BC18000856
:100B0000F0B585B00FF26C0C9CE8E01001A8A0E8ED
:100B1000E0101CA52D680095002100220023002470
:100B20000020194D696801F00C05F5B1042D02D0C3
:100B3000082D19D101E0154819E001ADC1F3834634
:100B4000AC5D01F4803555B10F4D6D68C5F340457E
:100B50001DF805200D4D6543B5FBF2F302E00C4D89
:100B600004FB05F3184602E000BF084800BF00BFC1
:100B700005B0F0BD02030405060708090A0B0C0DB9
:100B80000E0F1010010200000010024000127A0047
:100B900000093D00F8B504460CB90120F8BD2078E5
:100BA00000F00100002878D0F848406800F00C0000
:100BB00004280CD0F548406800F00C00082811D13A
:100BC000F248406800F48030B0F5803F0AD1EF4829
:100BD000006800F4003000285FD0606800285CD115
:100BE0000120DBE700BF6068B0F5803F06D1E74831
:100BF000006840F48030E549086028E0606858B932
:100C0000E248006820F48030E04908600846006847
:100C100020F4802008601AE06068B0F5A02F0BD1A6
:100C2000DA48006840F48020D84908600846006827
:100C300040F4803008600AE0D448006820F4803036
:100C4000D24908600846006820F48020086000BF90
:100C5000606888B1FFF79AFD054606E0FFF796FD4C
:100C6000401B642801D9032098E7C848006800F4B5
:100C700000300028F2D010E0FFF788FD054606E0BE
:100C8000FFF784FD401B642801D9032086E7BF4895
:100C9000006800F400300028F2D1207800F0020053
:100CA000022857D1B948406800F00C0050B1B7484D
:100CB000406800F00C00082818D1B448406800F4DF
:100CC000803098B9B148006800F0020020B1206976
:100CD000012801D0012061E7AC48006820F0F8004D
:100CE000616940EAC100A949086033E02069E8B1C0
:100CF0000120A7490860FFF749FD054606E0FFF718
:100D000045FD401B022801D9032047E79F480068A2
:100D100000F002000028F2D09C48006820F0F800A3
:100D2000616940EAC1009949086013E000209849D0
:100D30000860FFF72BFD054606E0FFF727FD401B87
:100D4000022801D9032029E79048006800F002003A
:100D50000028F2D1207800F0080008282DD1A069E1
:100D6000B8B101208B490860FFF710FD054606E089
:100D7000FFF70CFD401B022801D903200EE7834832
:100D8000406A00F002000028F2D0012000F0C0FA12
:100D900013E000207F490860FFF7F8FC054606E0F5
:100DA000FFF7F4FC401B022801D90320F6E6774840
:100DB000406A00F002000028F2D1207800F0040020
:100DC000042873D100277148C06900F0805070B9C1
:100DD00000BF6E48C06940F080506C49C861084649
:100DE000C06900F08050009000BF00BF01276A4832
:100DF000006800F48070B0B96748006840F4807003
:100E000065490860FFF7C2FC054606E0FFF7BEFC37
:100E1000401B642801D90320C0E65F48006800F445
:100E200080700028F2D000BFE068012806D1574842
:100E3000006A40F001005549086227E0E06858B9AF
:100E40005248006A20F00100504908620846006AD2
:100E500020F00400086219E0E06805280BD14B4837
:100E6000006A40F00400494908620846006A40F000
:100E7000010008620AE04548006A20F00100434989
:100E800008620846006A20F00400086200BFE068BB
:100E9000A0B1FFF77BFC054609E0FFF777FC401B9C
:100EA00041F28831884202D9032077E622E03748B0
:100EB000006A00F002000028EFD012E0FFF766FCA5
:100EC000054608E0FFF762FC401B41F2883188428A
:100ED00001D9032062E62D48006A00F002000028D4
:100EE000F0D1012F05D12948C06920F08050274951
:100EF000C86100BFE069C8B32448406800F00C0036
:100F0000082860D0E069022848D1002020490866FE
:100F1000FFF73CFC054606E0FFF738FC401B0228C3
:100F200001D903203AE61948006800F00070002853
:100F3000F2D1206AB0F5803F07D11448406820F410
:100F40000030A168084311494860D4E9080108430A
:100F50000E49496821F4741108430C494860012086
:100F60000B490866FFF712FC054607E03DE0FFF776
:100F70000DFC401B022801D903200FE6034800683E
:100F800000F000700028F2D02FE0000000100240B6
:100F90000000424280044242007000400020144998
:100FA0000866FFF7F3FB054606E0FFF7EFFB401B83
:100FB000022801D90320F1E50E48006800F0007016
:100FC0000028F2D111E0E069012800D1E6E50948E6
:100FD000466806F48031206A814204D106F470111B
:100FE000606A814201D00120D8E50020D6E50000EA
:100FF0000000424200100240042808D14FF0E021D6
:10100000096941F004014FF0E022116107E04FF05F
:10101000E021096921F004014FF0E02211617047DD
:1010200070B504462546681EB0F1807F01D30120CB
:101030000FE0681E4FF0E02148610F214FF0FF30B4
:1010400000F04EFB00204FF0E0218861072008618E
:10105000002070BD10B504460CB9012010BDA06978
:1010600000B100E000BF94F8390028B9002084F8EE
:101070003800204600F028F8242084F83900206841
:10108000C06820F400502168C860204600F0CCF908
:101090002068006920F49040216808612068406958
:1010A00020F02A00216848612068C06840F40050A0
:1010B0002168C8600020E063202084F8390084F8AB
:1010C0003A000020CAE7000010B586B004460020B0
:1010D00002900390049005901E492068884236D102
:1010E00000BF1D48806940F480401B498861084664
:1010F000806900F48040019000BF00BF00BF084637
:10110000806940F0040088610846806900F00400AE
:10111000019000BF00BF48150290022003900320F9
:10112000059002A90D48FFF783F94FF48060029003
:1011300000200390049002A90848FFF779F90022E3
:1011400001212520FFF79EFB2520FFF78BFB06B032
:1011500010BD0000003801400010024000080140AE
:101160002DE9F84304460D4616461F464FF0000988
:1011700094F83A00202860D105B116B90120BDE8E5
:10118000F88300BF94F83800012801D10220F6E767
:10119000012084F8380000BF0020E063222084F89A
:1011A0003A00FFF7F3FA8146A685E68539E0E08D3F
:1011B000401EE085A068B0F5805F1BD14B46002241
:1011C00020212046009700F0FFF908B10320D6E760
:1011D000A846206938B920684068C0F30800A8F81C
:1011E0000000AD1C1DE020684068C0B2A8F80000F7
:1011F0006D1C16E04B46002220212046009700F08F
:10120000E3F908B10320BAE7206920B920684068F3
:1012100005F8010B05E02068406800F07F0005F844
:10122000010BE08D0028C2D1202084F83A0000BFD5
:10123000002084F8380000BFA1E702209FE700BF2C
:10124000FEE7000000B585B00020019002900390F9
:10125000049000BF1648806940F02000144988615E
:101260000846806900F02000009000BF00BF00BF6A
:101270000846806940F0040088610846806900F0F3
:101280000400009000BF00BF012203210948FFF7BE
:1012900076FA0320019001200290002003900320A1
:1012A000049001A90348FFF7C3F805B000BD000092
:1012B000001002400008014010B5114811490860B3
:1012C0004FF4E130486000210E488160C160016147
:1012D0000C21416100218161C161FFF7BBFE09481A
:1012E0000068C06840F0200006490968C8600548E9
:1012F0000068C06840F0100002490968C86010BD6D
:10130000003801404401002000BFFEE770477047ED
:1013100008B508490968C9084FF47A72B1FBF2F1BF
:101320004143009100BF00BF00994A1E009200296E
:10133000F9D108BD00000020704710B5FFF72CFA66
:1013400000F0A2FA10BD10B590B0282106A8FEF753
:10135000CCFF142101A8FEF7C8FF0120069000046D
:1013600007900020089001200A9002200D90C103F0
:101370000E914FF4E0110F9106A8FFF70BFC08B196
:1013800000BFFEE70F200190022002900020039092
:101390004FF48060049000200590022101A8FFF71F
:1013A000C3FA08B100BFFEE7FFF784FB4FF47A7180
:1013B000B0FBF1F42046FFF733FE0420FFF71CFEDC
:1013C00000221146501EFFF75DFA10B010BD00005C
:1013D0001148006840F001000F4908600846406865
:1013E0000E4908400C494860084600680C4908400E
:1013F000094908600846006820F480200860084613
:10140000406820F4FE0048604FF41F008860C80365
:101410000449086070470000001002400000FFF817
:10142000FFFFF6FE08ED00E070B50446216809698B
:1014300021F44051E2681143226811612269A168D8
:101440001143626941EA02052168C96841F20C62F0
:10145000914329432268D1602168496921F4407190
:10146000A269114322685161564A2168914254D1C0
:10147000FFF736FB00EBC00101EB00116268920040
:10148000B1FBF2F100EBC00202EB001263689B00BB
:10149000B2FBF3F26423B2FBF3F202EBC20303EB01
:1014A0000212A1EB8201322202EB01116422B1FB94
:1014B000F2F101F0F00100EBC00202EB00126368F0
:1014C0009B00B2FBF3F26423B2FBF3F201EB0212D6
:1014D00000EBC00101EB001163689B00B1FBF3F16D
:1014E00000EBC00303EB00136668B600B3FBF6F332
:1014F0006426B3FBF6F303EBC30606EB0313A1EB81
:101500008301322303EB01116423B1FBF3F101F0FA
:101510000F0111442268916053E0FFF7D1FA00EB0C
:10152000C00101EB001162689200B1FBF2F100EB27
:10153000C00202EB001263689B00B2FBF3F264236B
:10154000B2FBF3F202EBC20303EB0212A1EB820146
:10155000322202EB01116422B1FBF2F101F0F00141
:1015600000EBC00202EB001263689B00B2FBF3F2D7
:101570006423B2FBF3F201EB021200EBC00101EBBA
:10158000001163689B00B1FBF3F100EBC00303EBB8
:1015900000136668B600B3FBF6F36426B3FBF6F3FC
:1015A00003EBC30606EB0313A1EB8301322303EB2A
:1015B00001116423B1FBF3F101F00F011144226822
:1015C000916070BD003801402DE9F04104460D46A0
:1015D00017469846069E21E0701CF8B12EB1FFF721
:1015E000D5F8A0EB0800B04218D92068C06820F4F4
:1015F000D0702168C8602068406920F0010021682F
:101600004861202084F8390084F83A0000BF0020A7
:1016100084F8380000BF0320BDE8F081206800682E
:101620002840A84201D1012000E00020B842D3D0D8
:101630000020F1E71CB51D4800680068C0F34010A9
:10164000A8B14FF47A73012201A91848FFF788FD69
:101650009DF80410164802880088401C144B18801E
:10166000144881546FF020001049096808600F4841
:1016700000680068C0F30010B8B100210D480C4AA2
:101680001288815401460CA0FEF7C6FD00200849CF
:10169000088000BF0090054800680068009003487B
:1016A00000684068009000BF00BF1CBD44010020DE
:1016B0001000002044000020555341525431207244
:1016C0006563656976653A2025730A0000BFFEE709
:1016D00002480068C0F30220704700000CED00E0F3
:1016E00010B5002804DB0A07130E054A135406E060
:1016F0000A07140E034A00F00F031B1FD45410BD39
:1017000000E400E018ED00E000BF704710B5FFF7FF
:101710004FF8FFF718FE10BD00BF054A126802F02F
:101720004002002AF9D0C2B2014B1B1D1A6070475B
:101730000038014010B500F001F810BD10B50121CE
:101740000248FFF715F8002010BD00000008014016
:1017500010B500F001F810BD10B502210248FFF7E6
:1017600007F8002010BD00000008014000F004F858
:1017700001E000F033F8FCE710B5FFF7C7FF00F019
:1017800007F8FFF75FFDFFF797FD002010BD000091
:1017900070B500241AE004EB44050E4E06EB8505F7
:1017A000AB6804EB440506EB85056A6804EB440569
:1017B00056F82510084D05EB041000F015F82946E1
:1017C00001EB041000F038F8601CC4B2032CE2DB1B
:1017D000002070BD180000208401002010B500F02A
:1017E0000DF8002010BD000010B58160024C246887
:1017F00014440460436010BD4000002010B50C4844
:10180000046812E00B492068096888420CD86068B7
:1018100018B9204600F026F804E006496068096817
:1018200008442060A0688047E468002CEAD110BD1D
:101830003C0000204000002001460948026805E005
:101840008A4202D14FF0FF307047D268002AF7D1A8
:1018500003480068C860024801600020F4E7000007
:101860003C0000200246074808E00168914202D18E
:10187000CB68036001E001F10C0000BF01680029A2
:10188000F3D170473C00002002480068401C014929
:10189000086070474000002010B502A0FEF7BCFCB5
:1018A00010BD00007373730A0D00000000000000FB
:1018B0000000000001020304060708090000000000
:1018C00001020304E41800080000002044000000A6
:1018D0006C0100082819000844000020D40700000B
:1018E000880100080024F40000000000100000003F
:1018F0000100000000000000000000003517000893
:10190000E8030000E803000051170008F40100009C
:10191000F401000099180008E8030000E803000043
:081920000000000000000000BF
:0400000508000131BD
:00000001FF
